{
  "contractName": "HelloWorld",
  "abi": [
    {
      "constant": true,
      "inputs": [],
      "name": "getInt",
      "outputs": [
        {
          "name": "",
          "type": "uint256"
        }
      ],
      "payable": false,
      "stateMutability": "pure",
      "type": "function"
    },
    {
      "constant": true,
      "inputs": [],
      "name": "getString",
      "outputs": [
        {
          "name": "",
          "type": "string"
        }
      ],
      "payable": false,
      "stateMutability": "pure",
      "type": "function"
    },
    {
      "constant": true,
      "inputs": [
        {
          "name": "a",
          "type": "uint256"
        },
        {
          "name": "b",
          "type": "uint256"
        }
      ],
      "name": "sum",
      "outputs": [
        {
          "name": "",
          "type": "uint256"
        }
      ],
      "payable": false,
      "stateMutability": "pure",
      "type": "function"
    }
  ],
  "bytecode": "0x608060405234801561001057600080fd5b50610237806100206000396000f3fe608060405260043610610057576000357c0100000000000000000000000000000000000000000000000000000000900463ffffffff168063627389981461005c57806389ea642f14610087578063cad0899b14610117575b600080fd5b34801561006857600080fd5b50610071610170565b6040518082815260200191505060405180910390f35b34801561009357600080fd5b5061009c61017c565b6040518080602001828103825283818151815260200191508051906020019080838360005b838110156100dc5780820151818401526020810190506100c1565b50505050905090810190601f1680156101095780820380516001836020036101000a031916815260200191505b509250505060405180910390f35b34801561012357600080fd5b5061015a6004803603604081101561013a57600080fd5b8101908080359060200190929190803590602001909291905050506101b9565b6040518082815260200191505060405180910390f35b600063fd6aaf78905090565b60606040805190810160405280600c81526020017f4a6f686e20736179732068690000000000000000000000000000000000000000815250905090565b60006101c583836101cd565b905092915050565b6000808314156101e05760009050610205565b600082840290508284828115156101f357fe5b0414151561020057600080fd5b809150505b9291505056fea165627a7a72305820ee43e62dbb59f49cf786d60465b88cc1f1918af46aed0ef478af7cc68e9c25870029",
  "source": "pragma solidity ^0.5.0;\n\nimport \"./SafeMath.sol\";\n\ncontract HelloWorld {\n function getInt () public pure returns (uint) {\n   return 4251627384;\n }\n function getString () public pure returns (string memory) {\n   return \"John says hi\";\n }\n function sum (uint a, uint b) public pure returns (uint) {\n   return SafeMath.mul(a,b);\n}\n}\n",
  "sourcePath": "/home/zh_alex/work/cryptocurrency-exchanger-hedera/smartContract/contracts/test.sol",
  "compiler": {
    "name": "solc",
    "version": "0.5.0+commit.1d4f565a.Emscripten.clang"
  },
  "schemaVersion": "3.0.9",
  "updatedAt": "2019-05-27T11:43:19.876Z",
  "devdoc": {
    "methods": {}
  },
  "userdoc": {
    "methods": {}
  }
}